{
  "contractName": "PlayerToken",
  "abi": [
    {
      "inputs": [
        {
          "internalType": "address",
          "name": "_authority",
          "type": "address"
        }
      ],
      "payable": false,
      "stateMutability": "nonpayable",
      "type": "constructor"
    },
    {
      "anonymous": false,
      "inputs": [
        {
          "indexed": true,
          "internalType": "address",
          "name": "owner",
          "type": "address"
        },
        {
          "indexed": true,
          "internalType": "address",
          "name": "approved",
          "type": "address"
        },
        {
          "indexed": true,
          "internalType": "uint256",
          "name": "tokenId",
          "type": "uint256"
        }
      ],
      "name": "Approval",
      "type": "event"
    },
    {
      "anonymous": false,
      "inputs": [
        {
          "indexed": true,
          "internalType": "address",
          "name": "owner",
          "type": "address"
        },
        {
          "indexed": true,
          "internalType": "address",
          "name": "operator",
          "type": "address"
        },
        {
          "indexed": false,
          "internalType": "bool",
          "name": "approved",
          "type": "bool"
        }
      ],
      "name": "ApprovalForAll",
      "type": "event"
    },
    {
      "anonymous": false,
      "inputs": [
        {
          "indexed": true,
          "internalType": "address",
          "name": "from",
          "type": "address"
        },
        {
          "indexed": true,
          "internalType": "address",
          "name": "to",
          "type": "address"
        },
        {
          "indexed": true,
          "internalType": "uint256",
          "name": "tokenId",
          "type": "uint256"
        }
      ],
      "name": "Transfer",
      "type": "event"
    },
    {
      "constant": true,
      "inputs": [
        {
          "internalType": "uint256",
          "name": "tokenId",
          "type": "uint256"
        }
      ],
      "name": "_getStats",
      "outputs": [
        {
          "internalType": "uint8[]",
          "name": "",
          "type": "uint8[]"
        }
      ],
      "payable": false,
      "stateMutability": "view",
      "type": "function"
    },
    {
      "constant": false,
      "inputs": [
        {
          "internalType": "address",
          "name": "to",
          "type": "address"
        },
        {
          "internalType": "uint256",
          "name": "tokenId",
          "type": "uint256"
        }
      ],
      "name": "approve",
      "outputs": [],
      "payable": false,
      "stateMutability": "nonpayable",
      "type": "function"
    },
    {
      "constant": true,
      "inputs": [
        {
          "internalType": "address",
          "name": "owner",
          "type": "address"
        }
      ],
      "name": "balanceOf",
      "outputs": [
        {
          "internalType": "uint256",
          "name": "",
          "type": "uint256"
        }
      ],
      "payable": false,
      "stateMutability": "view",
      "type": "function"
    },
    {
      "constant": true,
      "inputs": [
        {
          "internalType": "uint256",
          "name": "tokenId",
          "type": "uint256"
        }
      ],
      "name": "getApproved",
      "outputs": [
        {
          "internalType": "address",
          "name": "",
          "type": "address"
        }
      ],
      "payable": false,
      "stateMutability": "view",
      "type": "function"
    },
    {
      "constant": true,
      "inputs": [
        {
          "internalType": "address",
          "name": "owner",
          "type": "address"
        },
        {
          "internalType": "address",
          "name": "operator",
          "type": "address"
        }
      ],
      "name": "isApprovedForAll",
      "outputs": [
        {
          "internalType": "bool",
          "name": "",
          "type": "bool"
        }
      ],
      "payable": false,
      "stateMutability": "view",
      "type": "function"
    },
    {
      "constant": true,
      "inputs": [],
      "name": "name",
      "outputs": [
        {
          "internalType": "string",
          "name": "",
          "type": "string"
        }
      ],
      "payable": false,
      "stateMutability": "view",
      "type": "function"
    },
    {
      "constant": true,
      "inputs": [
        {
          "internalType": "uint256",
          "name": "tokenId",
          "type": "uint256"
        }
      ],
      "name": "ownerOf",
      "outputs": [
        {
          "internalType": "address",
          "name": "",
          "type": "address"
        }
      ],
      "payable": false,
      "stateMutability": "view",
      "type": "function"
    },
    {
      "constant": false,
      "inputs": [
        {
          "internalType": "address",
          "name": "from",
          "type": "address"
        },
        {
          "internalType": "address",
          "name": "to",
          "type": "address"
        },
        {
          "internalType": "uint256",
          "name": "tokenId",
          "type": "uint256"
        }
      ],
      "name": "safeTransferFrom",
      "outputs": [],
      "payable": false,
      "stateMutability": "nonpayable",
      "type": "function"
    },
    {
      "constant": false,
      "inputs": [
        {
          "internalType": "address",
          "name": "from",
          "type": "address"
        },
        {
          "internalType": "address",
          "name": "to",
          "type": "address"
        },
        {
          "internalType": "uint256",
          "name": "tokenId",
          "type": "uint256"
        },
        {
          "internalType": "bytes",
          "name": "_data",
          "type": "bytes"
        }
      ],
      "name": "safeTransferFrom",
      "outputs": [],
      "payable": false,
      "stateMutability": "nonpayable",
      "type": "function"
    },
    {
      "constant": false,
      "inputs": [
        {
          "internalType": "address",
          "name": "to",
          "type": "address"
        },
        {
          "internalType": "bool",
          "name": "approved",
          "type": "bool"
        }
      ],
      "name": "setApprovalForAll",
      "outputs": [],
      "payable": false,
      "stateMutability": "nonpayable",
      "type": "function"
    },
    {
      "constant": true,
      "inputs": [
        {
          "internalType": "bytes4",
          "name": "interfaceId",
          "type": "bytes4"
        }
      ],
      "name": "supportsInterface",
      "outputs": [
        {
          "internalType": "bool",
          "name": "",
          "type": "bool"
        }
      ],
      "payable": false,
      "stateMutability": "view",
      "type": "function"
    },
    {
      "constant": true,
      "inputs": [],
      "name": "symbol",
      "outputs": [
        {
          "internalType": "string",
          "name": "",
          "type": "string"
        }
      ],
      "payable": false,
      "stateMutability": "view",
      "type": "function"
    },
    {
      "constant": true,
      "inputs": [
        {
          "internalType": "uint256",
          "name": "index",
          "type": "uint256"
        }
      ],
      "name": "tokenByIndex",
      "outputs": [
        {
          "internalType": "uint256",
          "name": "",
          "type": "uint256"
        }
      ],
      "payable": false,
      "stateMutability": "view",
      "type": "function"
    },
    {
      "constant": true,
      "inputs": [
        {
          "internalType": "address",
          "name": "owner",
          "type": "address"
        },
        {
          "internalType": "uint256",
          "name": "index",
          "type": "uint256"
        }
      ],
      "name": "tokenOfOwnerByIndex",
      "outputs": [
        {
          "internalType": "uint256",
          "name": "",
          "type": "uint256"
        }
      ],
      "payable": false,
      "stateMutability": "view",
      "type": "function"
    },
    {
      "constant": true,
      "inputs": [
        {
          "internalType": "uint256",
          "name": "tokenId",
          "type": "uint256"
        }
      ],
      "name": "tokenURI",
      "outputs": [
        {
          "internalType": "string",
          "name": "",
          "type": "string"
        }
      ],
      "payable": false,
      "stateMutability": "view",
      "type": "function"
    },
    {
      "constant": true,
      "inputs": [],
      "name": "totalSupply",
      "outputs": [
        {
          "internalType": "uint256",
          "name": "",
          "type": "uint256"
        }
      ],
      "payable": false,
      "stateMutability": "view",
      "type": "function"
    },
    {
      "constant": false,
      "inputs": [
        {
          "internalType": "address",
          "name": "from",
          "type": "address"
        },
        {
          "internalType": "address",
          "name": "to",
          "type": "address"
        },
        {
          "internalType": "uint256",
          "name": "tokenId",
          "type": "uint256"
        }
      ],
      "name": "transferFrom",
      "outputs": [],
      "payable": false,
      "stateMutability": "nonpayable",
      "type": "function"
    },
    {
      "constant": false,
      "inputs": [
        {
          "internalType": "address",
          "name": "from",
          "type": "address"
        },
        {
          "internalType": "address",
          "name": "to",
          "type": "address"
        },
        {
          "internalType": "uint256",
          "name": "tokenId",
          "type": "uint256"
        }
      ],
      "name": "transferFromNoRequirement",
      "outputs": [],
      "payable": false,
      "stateMutability": "nonpayable",
      "type": "function"
    },
    {
      "constant": false,
      "inputs": [
        {
          "internalType": "uint256",
          "name": "tokenId",
          "type": "uint256"
        },
        {
          "internalType": "uint256",
          "name": "amount",
          "type": "uint256"
        }
      ],
      "name": "addListing",
      "outputs": [],
      "payable": false,
      "stateMutability": "nonpayable",
      "type": "function"
    },
    {
      "constant": true,
      "inputs": [
        {
          "internalType": "uint256",
          "name": "listingId",
          "type": "uint256"
        }
      ],
      "name": "getListingData",
      "outputs": [
        {
          "internalType": "uint256",
          "name": "",
          "type": "uint256"
        },
        {
          "internalType": "uint256",
          "name": "",
          "type": "uint256"
        },
        {
          "internalType": "uint256",
          "name": "",
          "type": "uint256"
        },
        {
          "internalType": "bool",
          "name": "",
          "type": "bool"
        },
        {
          "internalType": "uint256",
          "name": "",
          "type": "uint256"
        },
        {
          "internalType": "uint256",
          "name": "",
          "type": "uint256"
        },
        {
          "internalType": "uint256",
          "name": "",
          "type": "uint256"
        }
      ],
      "payable": false,
      "stateMutability": "view",
      "type": "function"
    },
    {
      "constant": true,
      "inputs": [],
      "name": "getCurrentListingIds",
      "outputs": [
        {
          "internalType": "uint256[]",
          "name": "",
          "type": "uint256[]"
        }
      ],
      "payable": false,
      "stateMutability": "view",
      "type": "function"
    },
    {
      "constant": false,
      "inputs": [
        {
          "internalType": "uint256",
          "name": "listingId",
          "type": "uint256"
        }
      ],
      "name": "purchaseToken",
      "outputs": [],
      "payable": true,
      "stateMutability": "payable",
      "type": "function"
    },
    {
      "constant": false,
      "inputs": [
        {
          "internalType": "address",
          "name": "_to",
          "type": "address"
        },
        {
          "internalType": "string",
          "name": "_tokenURI",
          "type": "string"
        },
        {
          "internalType": "uint8[3]",
          "name": "stats",
          "type": "uint8[3]"
        }
      ],
      "name": "mint",
      "outputs": [
        {
          "internalType": "bool",
          "name": "",
          "type": "bool"
        }
      ],
      "payable": false,
      "stateMutability": "nonpayable",
      "type": "function"
    },
    {
      "constant": false,
      "inputs": [
        {
          "internalType": "uint256",
          "name": "tokenId",
          "type": "uint256"
        },
        {
          "internalType": "uint8[3]",
          "name": "stats",
          "type": "uint8[3]"
        }
      ],
      "name": "changeStats",
      "outputs": [],
      "payable": false,
      "stateMutability": "nonpayable",
      "type": "function"
    },
    {
      "constant": true,
      "inputs": [
        {
          "internalType": "address",
          "name": "owner",
          "type": "address"
        }
      ],
      "name": "tokensOfOwner",
      "outputs": [
        {
          "internalType": "uint256[]",
          "name": "",
          "type": "uint256[]"
        }
      ],
      "payable": false,
      "stateMutability": "view",
      "type": "function"
    },
    {
      "constant": false,
      "inputs": [
        {
          "internalType": "address",
          "name": "_account",
          "type": "address"
        }
      ],
      "name": "addAuthorizeAccount",
      "outputs": [],
      "payable": false,
      "stateMutability": "nonpayable",
      "type": "function"
    }
  ],
  "bytecode": "0x60806040523480156200001157600080fd5b5060405162003f8138038062003f81833981810160405260208110156200003757600080fd5b81019080805190602001909291905050506040518060400160405280600b81526020017f506c61796572546f6b656e0000000000000000000000000000000000000000008152506040518060400160405280600681526020017f50544f4b454e00000000000000000000000000000000000000000000000000008152508181620000ce6301ffc9a760e01b620001f460201b60201c565b620000e66380ac58cd60e01b620001f460201b60201c565b620000fe63780e9d6360e01b620001f460201b60201c565b81600a908051906020019062000116929190620002fd565b5080600b90805190602001906200012f929190620002fd565b5062000148635b5e139f60e01b620001f460201b60201c565b5050505080600d60006101000a81548173ffffffffffffffffffffffffffffffffffffffff021916908373ffffffffffffffffffffffffffffffffffffffff1602179055506001600e60008373ffffffffffffffffffffffffffffffffffffffff1673ffffffffffffffffffffffffffffffffffffffff16815260200190815260200160002060006101000a81548160ff021916908315150217905550600060138190555050620003ac565b63ffffffff60e01b817bffffffffffffffffffffffffffffffffffffffffffffffffffffffff1916141562000291576040517f08c379a000000000000000000000000000000000000000000000000000000000815260040180806020018281038252601c8152602001807f4552433136353a20696e76616c696420696e746572666163652069640000000081525060200191505060405180910390fd5b6001600080837bffffffffffffffffffffffffffffffffffffffffffffffffffffffff19167bffffffffffffffffffffffffffffffffffffffffffffffffffffffff1916815260200190815260200160002060006101000a81548160ff02191690831515021790555050565b828054600181600116156101000203166002900490600052602060002090601f016020900481019282601f106200034057805160ff191683800117855562000371565b8280016001018555821562000371579182015b828111156200037057825182559160200191906001019062000353565b5b50905062000380919062000384565b5090565b620003a991905b80821115620003a55760008160009055506001016200038b565b5090565b90565b613bc580620003bc6000396000f3fe6080604052600436106101815760003560e01c806370a08231116100d157806395d89b411161008a578063c2db2c4211610064578063c2db2c4214610cb8578063c87b56dd14610ce6578063e1b482ba14610d9a578063e985e9c514610deb57610181565b806395d89b4114610ab9578063a22cb46514610b49578063b88d4fde14610ba657610181565b806370a08231146107f15780637b06db7d146108565780637ddd5883146108e65780637dfc7bf214610952578063836cf6e9146109ce5780638462151c14610a1357610181565b806323b872dd1161013e578063312a411711610118578063312a41171461063157806342842e0e146106ac5780634f6ccce7146107275780636352211e1461077657610181565b806323b872dd1461040657806328397ec4146104815780632f745c59146105c257610181565b806301ffc9a71461018657806306fdde03146101f8578063081812fc14610288578063095ea7b31461030357806318160ddd1461035e5780631dfe0e8414610389575b600080fd5b34801561019257600080fd5b506101de600480360360208110156101a957600080fd5b8101908080357bffffffffffffffffffffffffffffffffffffffffffffffffffffffff19169060200190929190505050610e74565b604051808215151515815260200191505060405180910390f35b34801561020457600080fd5b5061020d610edb565b6040518080602001828103825283818151815260200191508051906020019080838360005b8381101561024d578082015181840152602081019050610232565b50505050905090810190601f16801561027a5780820380516001836020036101000a031916815260200191505b509250505060405180910390f35b34801561029457600080fd5b506102c1600480360360208110156102ab57600080fd5b8101908080359060200190929190505050610f7d565b604051808273ffffffffffffffffffffffffffffffffffffffff1673ffffffffffffffffffffffffffffffffffffffff16815260200191505060405180910390f35b34801561030f57600080fd5b5061035c6004803603604081101561032657600080fd5b81019080803573ffffffffffffffffffffffffffffffffffffffff16906020019092919080359060200190929190505050611018565b005b34801561036a57600080fd5b506103736111f1565b6040518082815260200191505060405180910390f35b34801561039557600080fd5b506103c2600480360360208110156103ac57600080fd5b81019080803590602001909291905050506111fe565b604051808881526020018781526020018681526020018515151515815260200184815260200183815260200182815260200197505050505050505060405180910390f35b34801561041257600080fd5b5061047f6004803603606081101561042957600080fd5b81019080803573ffffffffffffffffffffffffffffffffffffffff169060200190929190803573ffffffffffffffffffffffffffffffffffffffff1690602001909291908035906020019092919050505061131c565b005b34801561048d57600080fd5b506105a8600480360360a08110156104a457600080fd5b81019080803573ffffffffffffffffffffffffffffffffffffffff169060200190929190803590602001906401000000008111156104e157600080fd5b8201836020820111156104f357600080fd5b8035906020019184600183028401116401000000008311171561051557600080fd5b91908080601f016020809104026020016040519081016040528093929190818152602001838380828437600081840152601f19601f82011690508083019250505050505050919291929080606001906003806020026040519081016040528092919082600360200280828437600081840152601f19601f820116905080830192505050505050919291929050505061138b565b604051808215151515815260200191505060405180910390f35b3480156105ce57600080fd5b5061061b600480360360408110156105e557600080fd5b81019080803573ffffffffffffffffffffffffffffffffffffffff16906020019092919080359060200190929190505050611434565b6040518082815260200191505060405180910390f35b34801561063d57600080fd5b506106aa6004803603606081101561065457600080fd5b81019080803573ffffffffffffffffffffffffffffffffffffffff169060200190929190803573ffffffffffffffffffffffffffffffffffffffff169060200190929190803590602001909291905050506114f3565b005b3480156106b857600080fd5b50610725600480360360608110156106cf57600080fd5b81019080803573ffffffffffffffffffffffffffffffffffffffff169060200190929190803573ffffffffffffffffffffffffffffffffffffffff16906020019092919080359060200190929190505050611503565b005b34801561073357600080fd5b506107606004803603602081101561074a57600080fd5b8101908080359060200190929190505050611523565b6040518082815260200191505060405180910390f35b34801561078257600080fd5b506107af6004803603602081101561079957600080fd5b81019080803590602001909291905050506115a3565b604051808273ffffffffffffffffffffffffffffffffffffffff1673ffffffffffffffffffffffffffffffffffffffff16815260200191505060405180910390f35b3480156107fd57600080fd5b506108406004803603602081101561081457600080fd5b81019080803573ffffffffffffffffffffffffffffffffffffffff16906020019092919050505061166b565b6040518082815260200191505060405180910390f35b34801561086257600080fd5b5061088f6004803603602081101561087957600080fd5b8101908080359060200190929190505050611740565b6040518080602001828103825283818151815260200191508051906020019060200280838360005b838110156108d25780820151818401526020810190506108b7565b505050509050019250505060405180910390f35b3480156108f257600080fd5b506108fb61190e565b6040518080602001828103825283818151815260200191508051906020019060200280838360005b8381101561093e578082015181840152602081019050610923565b505050509050019250505060405180910390f35b34801561095e57600080fd5b506109cc6004803603608081101561097557600080fd5b810190808035906020019092919080606001906003806020026040519081016040528092919082600360200280828437600081840152601f19601f82011690508083019250505050505091929192905050506119c4565b005b3480156109da57600080fd5b50610a11600480360360408110156109f157600080fd5b810190808035906020019092919080359060200190929190505050611a30565b005b348015610a1f57600080fd5b50610a6260048036036020811015610a3657600080fd5b81019080803573ffffffffffffffffffffffffffffffffffffffff169060200190929190505050611dda565b6040518080602001828103825283818151815260200191508051906020019060200280838360005b83811015610aa5578082015181840152602081019050610a8a565b505050509050019250505060405180910390f35b348015610ac557600080fd5b50610ace611e99565b6040518080602001828103825283818151815260200191508051906020019080838360005b83811015610b0e578082015181840152602081019050610af3565b50505050905090810190601f168015610b3b5780820380516001836020036101000a031916815260200191505b509250505060405180910390f35b348015610b5557600080fd5b50610ba460048036036040811015610b6c57600080fd5b81019080803573ffffffffffffffffffffffffffffffffffffffff169060200190929190803515159060200190929190505050611f3b565b005b348015610bb257600080fd5b50610cb660048036036080811015610bc957600080fd5b81019080803573ffffffffffffffffffffffffffffffffffffffff169060200190929190803573ffffffffffffffffffffffffffffffffffffffff1690602001909291908035906020019092919080359060200190640100000000811115610c3057600080fd5b820183602082011115610c4257600080fd5b80359060200191846001830284011164010000000083111715610c6457600080fd5b91908080601f016020809104026020016040519081016040528093929190818152602001838380828437600081840152601f19601f8201169050808301925050505050505091929192905050506120de565b005b610ce460048036036020811015610cce57600080fd5b8101908080359060200190929190505050612150565b005b348015610cf257600080fd5b50610d1f60048036036020811015610d0957600080fd5b8101908080359060200190929190505050612459565b6040518080602001828103825283818151815260200191508051906020019080838360005b83811015610d5f578082015181840152602081019050610d44565b50505050905090810190601f168015610d8c5780820380516001836020036101000a031916815260200191505b509250505060405180910390f35b348015610da657600080fd5b50610de960048036036020811015610dbd57600080fd5b81019080803573ffffffffffffffffffffffffffffffffffffffff16906020019092919050505061256c565b005b348015610df757600080fd5b50610e5a60048036036040811015610e0e57600080fd5b81019080803573ffffffffffffffffffffffffffffffffffffffff169060200190929190803573ffffffffffffffffffffffffffffffffffffffff169060200190929190505050612710565b604051808215151515815260200191505060405180910390f35b6000806000837bffffffffffffffffffffffffffffffffffffffffffffffffffffffff19167bffffffffffffffffffffffffffffffffffffffffffffffffffffffff1916815260200190815260200160002060009054906101000a900460ff169050919050565b6060600a8054600181600116156101000203166002900480601f016020809104026020016040519081016040528092919081815260200182805460018160011615610100020316600290048015610f735780601f10610f4857610100808354040283529160200191610f73565b820191906000526020600020905b815481529060010190602001808311610f5657829003601f168201915b5050505050905090565b6000610f88826127a4565b610fdd576040517f08c379a000000000000000000000000000000000000000000000000000000000815260040180806020018281038252602c8152602001806139c8602c913960400191505060405180910390fd5b6002600083815260200190815260200160002060009054906101000a900473ffffffffffffffffffffffffffffffffffffffff169050919050565b6000611023826115a3565b90508073ffffffffffffffffffffffffffffffffffffffff168373ffffffffffffffffffffffffffffffffffffffff1614156110aa576040517f08c379a0000000000000000000000000000000000000000000000000000000008152600401808060200182810382526021815260200180613a786021913960400191505060405180910390fd5b8073ffffffffffffffffffffffffffffffffffffffff163373ffffffffffffffffffffffffffffffffffffffff1614806110ea57506110e98133612710565b5b61113f576040517f08c379a000000000000000000000000000000000000000000000000000000000815260040180806020018281038252603881526020018061393d6038913960400191505060405180910390fd5b826002600084815260200190815260200160002060006101000a81548173ffffffffffffffffffffffffffffffffffffffff021916908373ffffffffffffffffffffffffffffffffffffffff160217905550818373ffffffffffffffffffffffffffffffffffffffff168273ffffffffffffffffffffffffffffffffffffffff167f8c5be1e5ebec7d5bd14f71427d1e84f3dd0314c0f7b2291e5b200ac8c7c3b92560405160405180910390a4505050565b6000600880549050905090565b600080600080600080600061121233612816565b611267576040517f08c379a0000000000000000000000000000000000000000000000000000000008152600401808060200182810382526031815260200180613b086031913960400191505060405180910390fd5b6000601060008a81526020019081526020016000209050606061128d8260030154611740565b90508160000154826001015483600301548460040160009054906101000a900460ff16846000815181106112bd57fe5b6020026020010151856001815181106112d257fe5b6020026020010151866002815181106112e757fe5b60200260200101518260ff1692508160ff1691508060ff16905098509850985098509850985098505050919395979092949650565b611326338261286c565b61137b576040517f08c379a0000000000000000000000000000000000000000000000000000000008152600401808060200182810382526031815260200180613ad76031913960400191505060405180910390fd5b611386838383612960565b505050565b600061139633612816565b6113eb576040517f08c379a0000000000000000000000000000000000000000000000000000000008152600401808060200182810382526031815260200180613b086031913960400191505060405180910390fd5b600061140860016113fa6111f1565b61298490919063ffffffff16565b90506114148582612a0c565b61141e81846119c4565b6114288185612a2d565b60019150509392505050565b600061143f8361166b565b8210611496576040517f08c379a000000000000000000000000000000000000000000000000000000000815260040180806020018281038252602b815260200180613849602b913960400191505060405180910390fd5b600660008473ffffffffffffffffffffffffffffffffffffffff1673ffffffffffffffffffffffffffffffffffffffff16815260200190815260200160002082815481106114e057fe5b9060005260206000200154905092915050565b6114fe838383612960565b505050565b61151e838383604051806020016040528060008152506120de565b505050565b600061152d6111f1565b8210611584576040517f08c379a000000000000000000000000000000000000000000000000000000000815260040180806020018281038252602c815260200180613b39602c913960400191505060405180910390fd5b6008828154811061159157fe5b90600052602060002001549050919050565b6000806001600084815260200190815260200160002060009054906101000a900473ffffffffffffffffffffffffffffffffffffffff169050600073ffffffffffffffffffffffffffffffffffffffff168173ffffffffffffffffffffffffffffffffffffffff161415611662576040517f08c379a000000000000000000000000000000000000000000000000000000000815260040180806020018281038252602981526020018061399f6029913960400191505060405180910390fd5b80915050919050565b60008073ffffffffffffffffffffffffffffffffffffffff168273ffffffffffffffffffffffffffffffffffffffff1614156116f2576040517f08c379a000000000000000000000000000000000000000000000000000000000815260040180806020018281038252602a815260200180613975602a913960400191505060405180910390fd5b611739600360008473ffffffffffffffffffffffffffffffffffffffff1673ffffffffffffffffffffffffffffffffffffffff168152602001908152602001600020612ab7565b9050919050565b606060006001600084815260200190815260200160002060009054906101000a900473ffffffffffffffffffffffffffffffffffffffff169050600073ffffffffffffffffffffffffffffffffffffffff168173ffffffffffffffffffffffffffffffffffffffff161415611800576040517f08c379a000000000000000000000000000000000000000000000000000000000815260040180806020018281038252602981526020018061399f6029913960400191505060405180910390fd5b606060036040519080825280602002602001820160405280156118325781602001602082028038833980820191505090505b5090506005600085815260200190815260200160002060000160009054906101000a900460ff168160008151811061186657fe5b602002602001019060ff16908160ff16815250506005600085815260200190815260200160002060000160019054906101000a900460ff16816001815181106118ab57fe5b602002602001019060ff16908160ff16815250506005600085815260200190815260200160002060000160029054906101000a900460ff16816002815181106118f057fe5b602002602001019060ff16908160ff16815250508092505050919050565b606061191933612816565b61196e576040517f08c379a0000000000000000000000000000000000000000000000000000000008152600401808060200182810382526031815260200180613b086031913960400191505060405180910390fd5b60128054806020026020016040519081016040528092919081815260200182805480156119ba57602002820191906000526020600020905b8154815260200190600101908083116119a6575b5050505050905090565b6119cd33612816565b611a22576040517f08c379a0000000000000000000000000000000000000000000000000000000008152600401808060200182810382526031815260200180613b086031913960400191505060405180910390fd5b611a2c8282612ac5565b5050565b600073ffffffffffffffffffffffffffffffffffffffff163373ffffffffffffffffffffffffffffffffffffffff161415611ab6576040517f08c379a000000000000000000000000000000000000000000000000000000000815260040180806020018281038252603e815260200180613a99603e913960400191505060405180910390fd5b60008111611b2c576040517f08c379a000000000000000000000000000000000000000000000000000000000815260040180806020018281038252601d8152602001807f416d6f756e74206d7573742062652067726561746572207468616e203000000081525060200191505060405180910390fd5b3373ffffffffffffffffffffffffffffffffffffffff16611b4c836115a3565b73ffffffffffffffffffffffffffffffffffffffff1614611bd5576040517f08c379a00000000000000000000000000000000000000000000000000000000081526004018080602001828103825260158152602001807f4c6973746572206d757374206f776e20546f6b656e000000000000000000000081525060200191505060405180910390fd5b600f600083815260200190815260200160002060009054906101000a900460ff1615611c4c576040517f08c379a00000000000000000000000000000000000000000000000000000000081526004018080602001828103825260218152602001806138a66021913960400191505060405180910390fd5b6001600f600084815260200190815260200160002060006101000a81548160ff02191690831515021790555060016013540160138190555060006013549050611c93613730565b6040518060a001604052808381526020018481526020013373ffffffffffffffffffffffffffffffffffffffff168152602001858152602001600015158152509050601282908060018154018082558091505090600182039060005260206000200160009091929091909150555060016011600084815260200190815260200160002060006101000a81548160ff0219169083151502179055508060106000848152602001908152602001600020600082015181600001556020820151816001015560408201518160020160006101000a81548173ffffffffffffffffffffffffffffffffffffffff021916908373ffffffffffffffffffffffffffffffffffffffff1602179055506060820151816003015560808201518160040160006101000a81548160ff021916908315150217905550905050611dd4306001611f3b565b50505050565b6060611de533612816565b611e3a576040517f08c379a0000000000000000000000000000000000000000000000000000000008152600401808060200182810382526031815260200180613b086031913960400191505060405180910390fd5b611e4382612c48565b805480602002602001604051908101604052809291908181526020018280548015611e8d57602002820191906000526020600020905b815481526020019060010190808311611e79575b50505050509050919050565b6060600b8054600181600116156101000203166002900480601f016020809104026020016040519081016040528092919081815260200182805460018160011615610100020316600290048015611f315780601f10611f0657610100808354040283529160200191611f31565b820191906000526020600020905b815481529060010190602001808311611f1457829003601f168201915b5050505050905090565b3373ffffffffffffffffffffffffffffffffffffffff168273ffffffffffffffffffffffffffffffffffffffff161415611fdd576040517f08c379a00000000000000000000000000000000000000000000000000000000081526004018080602001828103825260198152602001807f4552433732313a20617070726f766520746f2063616c6c65720000000000000081525060200191505060405180910390fd5b80600460003373ffffffffffffffffffffffffffffffffffffffff1673ffffffffffffffffffffffffffffffffffffffff16815260200190815260200160002060008473ffffffffffffffffffffffffffffffffffffffff1673ffffffffffffffffffffffffffffffffffffffff16815260200190815260200160002060006101000a81548160ff0219169083151502179055508173ffffffffffffffffffffffffffffffffffffffff163373ffffffffffffffffffffffffffffffffffffffff167f17307eab39ab6107e8899845ad3d59bd9653f200f220920489ca2b5937696c3183604051808215151515815260200191505060405180910390a35050565b6120e984848461131c565b6120f584848484612c90565b61214a576040517f08c379a00000000000000000000000000000000000000000000000000000000081526004018080602001828103825260328152602001806138746032913960400191505060405180910390fd5b50505050565b6011600082815260200190815260200160002060009054906101000a900460ff166121e3576040517f08c379a00000000000000000000000000000000000000000000000000000000081526004018080602001828103825260208152602001807f4c697374696e67206d7573742062652063757272656e746c79206c697374656481525060200191505060405180910390fd5b60006010600083815260200190815260200160002090503481600101541115612274576040517f08c379a00000000000000000000000000000000000000000000000000000000081526004018080602001828103825260208152602001807f4d75737420706179207468652066756c6c206c697374696e6720616d6f756e7481525060200191505060405180910390fd5b8060020160009054906101000a900473ffffffffffffffffffffffffffffffffffffffff1673ffffffffffffffffffffffffffffffffffffffff163373ffffffffffffffffffffffffffffffffffffffff16141561233a576040517f08c379a000000000000000000000000000000000000000000000000000000000815260040180806020018281038252601d8152602001807f4c69737465722063616e6e6f7420627579206f776e206c697374696e6700000081525060200191505060405180910390fd5b61236d8160020160009054906101000a900473ffffffffffffffffffffffffffffffffffffffff163383600301546114f3565b8060020160009054906101000a900473ffffffffffffffffffffffffffffffffffffffff1673ffffffffffffffffffffffffffffffffffffffff166108fc82600101549081150290604051600060405180830381858888f193505050501580156123db573d6000803e3d6000fd5b506000600f60008360030154815260200190815260200160002060006101000a81548160ff02191690831515021790555060006011600084815260200190815260200160002060006101000a81548160ff02191690831515021790555060018160040160006101000a81548160ff0219169083151502179055505050565b6060612464826127a4565b6124b9576040517f08c379a000000000000000000000000000000000000000000000000000000000815260040180806020018281038252602f815260200180613a49602f913960400191505060405180910390fd5b600c60008381526020019081526020016000208054600181600116156101000203166002900480601f0160208091040260200160405190810160405280929190818152602001828054600181600116156101000203166002900480156125605780601f1061253557610100808354040283529160200191612560565b820191906000526020600020905b81548152906001019060200180831161254357829003601f168201915b50505050509050919050565b600d60009054906101000a900473ffffffffffffffffffffffffffffffffffffffff1673ffffffffffffffffffffffffffffffffffffffff163373ffffffffffffffffffffffffffffffffffffffff1614612612576040517f08c379a000000000000000000000000000000000000000000000000000000000815260040180806020018281038252602c815260200180613b65602c913960400191505060405180910390fd5b600e60008273ffffffffffffffffffffffffffffffffffffffff1673ffffffffffffffffffffffffffffffffffffffff16815260200190815260200160002060009054906101000a900460ff16156126b5576040517f08c379a00000000000000000000000000000000000000000000000000000000081526004018080602001828103825260268152602001806138eb6026913960400191505060405180910390fd5b6001600e60008373ffffffffffffffffffffffffffffffffffffffff1673ffffffffffffffffffffffffffffffffffffffff16815260200190815260200160002060006101000a81548160ff02191690831515021790555050565b6000600460008473ffffffffffffffffffffffffffffffffffffffff1673ffffffffffffffffffffffffffffffffffffffff16815260200190815260200160002060008373ffffffffffffffffffffffffffffffffffffffff1673ffffffffffffffffffffffffffffffffffffffff16815260200190815260200160002060009054906101000a900460ff16905092915050565b6000806001600084815260200190815260200160002060009054906101000a900473ffffffffffffffffffffffffffffffffffffffff169050600073ffffffffffffffffffffffffffffffffffffffff168173ffffffffffffffffffffffffffffffffffffffff161415915050919050565b6000600e60008373ffffffffffffffffffffffffffffffffffffffff1673ffffffffffffffffffffffffffffffffffffffff16815260200190815260200160002060009054906101000a900460ff169050919050565b6000612877826127a4565b6128cc576040517f08c379a000000000000000000000000000000000000000000000000000000000815260040180806020018281038252602c815260200180613911602c913960400191505060405180910390fd5b60006128d7836115a3565b90508073ffffffffffffffffffffffffffffffffffffffff168473ffffffffffffffffffffffffffffffffffffffff16148061294657508373ffffffffffffffffffffffffffffffffffffffff1661292e84610f7d565b73ffffffffffffffffffffffffffffffffffffffff16145b8061295757506129568185612710565b5b91505092915050565b61296b838383612e79565b61297583826130d4565b61297f8282613272565b505050565b600080828401905083811015612a02576040517f08c379a000000000000000000000000000000000000000000000000000000000815260040180806020018281038252601b8152602001807f536166654d6174683a206164646974696f6e206f766572666c6f77000000000081525060200191505060405180910390fd5b8091505092915050565b612a168282613339565b612a208282613272565b612a2981613551565b5050565b612a36826127a4565b612a8b576040517f08c379a000000000000000000000000000000000000000000000000000000000815260040180806020018281038252602c8152602001806139f4602c913960400191505060405180910390fd5b80600c60008481526020019081526020016000209080519060200190612ab2929190613777565b505050565b600081600001549050919050565b60006001600084815260200190815260200160002060009054906101000a900473ffffffffffffffffffffffffffffffffffffffff169050600073ffffffffffffffffffffffffffffffffffffffff168173ffffffffffffffffffffffffffffffffffffffff161415612b83576040517f08c379a000000000000000000000000000000000000000000000000000000000815260040180806020018281038252602981526020018061399f6029913960400191505060405180910390fd5b81600060038110612b9057fe5b60200201516005600085815260200190815260200160002060000160006101000a81548160ff021916908360ff16021790555081600160038110612bd057fe5b60200201516005600085815260200190815260200160002060000160016101000a81548160ff021916908360ff16021790555081600260038110612c1057fe5b60200201516005600085815260200190815260200160002060000160026101000a81548160ff021916908360ff160217905550505050565b6000600660008373ffffffffffffffffffffffffffffffffffffffff1673ffffffffffffffffffffffffffffffffffffffff1681526020019081526020016000209050919050565b6000612cb18473ffffffffffffffffffffffffffffffffffffffff1661359d565b612cbe5760019050612e71565b60008473ffffffffffffffffffffffffffffffffffffffff1663150b7a02338887876040518563ffffffff1660e01b8152600401808573ffffffffffffffffffffffffffffffffffffffff1673ffffffffffffffffffffffffffffffffffffffff1681526020018473ffffffffffffffffffffffffffffffffffffffff1673ffffffffffffffffffffffffffffffffffffffff16815260200183815260200180602001828103825283818151815260200191508051906020019080838360005b83811015612d99578082015181840152602081019050612d7e565b50505050905090810190601f168015612dc65780820380516001836020036101000a031916815260200191505b5095505050505050602060405180830381600087803b158015612de857600080fd5b505af1158015612dfc573d6000803e3d6000fd5b505050506040513d6020811015612e1257600080fd5b8101908080519060200190929190505050905063150b7a0260e01b7bffffffffffffffffffffffffffffffffffffffffffffffffffffffff1916817bffffffffffffffffffffffffffffffffffffffffffffffffffffffff1916149150505b949350505050565b8273ffffffffffffffffffffffffffffffffffffffff16612e99826115a3565b73ffffffffffffffffffffffffffffffffffffffff1614612f05576040517f08c379a0000000000000000000000000000000000000000000000000000000008152600401808060200182810382526029815260200180613a206029913960400191505060405180910390fd5b600073ffffffffffffffffffffffffffffffffffffffff168273ffffffffffffffffffffffffffffffffffffffff161415612f8b576040517f08c379a00000000000000000000000000000000000000000000000000000000081526004018080602001828103825260248152602001806138c76024913960400191505060405180910390fd5b612f94816135b0565b612fdb600360008573ffffffffffffffffffffffffffffffffffffffff1673ffffffffffffffffffffffffffffffffffffffff16815260200190815260200160002061366e565b613022600360008473ffffffffffffffffffffffffffffffffffffffff1673ffffffffffffffffffffffffffffffffffffffff168152602001908152602001600020613691565b816001600083815260200190815260200160002060006101000a81548173ffffffffffffffffffffffffffffffffffffffff021916908373ffffffffffffffffffffffffffffffffffffffff160217905550808273ffffffffffffffffffffffffffffffffffffffff168473ffffffffffffffffffffffffffffffffffffffff167fddf252ad1be2c89b69c2b068fc378daa952ba7f163c4a11628f55a4df523b3ef60405160405180910390a4505050565b600061312c6001600660008673ffffffffffffffffffffffffffffffffffffffff1673ffffffffffffffffffffffffffffffffffffffff168152602001908152602001600020805490506136a790919063ffffffff16565b9050600060076000848152602001908152602001600020549050818114613219576000600660008673ffffffffffffffffffffffffffffffffffffffff1673ffffffffffffffffffffffffffffffffffffffff168152602001908152602001600020838154811061319957fe5b9060005260206000200154905080600660008773ffffffffffffffffffffffffffffffffffffffff1673ffffffffffffffffffffffffffffffffffffffff16815260200190815260200160002083815481106131f157fe5b9060005260206000200181905550816007600083815260200190815260200160002081905550505b600660008573ffffffffffffffffffffffffffffffffffffffff1673ffffffffffffffffffffffffffffffffffffffff16815260200190815260200160002080548091906001900361326b91906137f7565b5050505050565b600660008373ffffffffffffffffffffffffffffffffffffffff1673ffffffffffffffffffffffffffffffffffffffff168152602001908152602001600020805490506007600083815260200190815260200160002081905550600660008373ffffffffffffffffffffffffffffffffffffffff1673ffffffffffffffffffffffffffffffffffffffff1681526020019081526020016000208190806001815401808255809150509060018203906000526020600020016000909192909190915055505050565b600073ffffffffffffffffffffffffffffffffffffffff168273ffffffffffffffffffffffffffffffffffffffff1614156133dc576040517f08c379a00000000000000000000000000000000000000000000000000000000081526004018080602001828103825260208152602001807f4552433732313a206d696e7420746f20746865207a65726f206164647265737381525060200191505060405180910390fd5b6133e5816127a4565b15613458576040517f08c379a000000000000000000000000000000000000000000000000000000000815260040180806020018281038252601c8152602001807f4552433732313a20746f6b656e20616c7265616479206d696e7465640000000081525060200191505060405180910390fd5b816001600083815260200190815260200160002060006101000a81548173ffffffffffffffffffffffffffffffffffffffff021916908373ffffffffffffffffffffffffffffffffffffffff1602179055506134f1600360008473ffffffffffffffffffffffffffffffffffffffff1673ffffffffffffffffffffffffffffffffffffffff168152602001908152602001600020613691565b808273ffffffffffffffffffffffffffffffffffffffff16600073ffffffffffffffffffffffffffffffffffffffff167fddf252ad1be2c89b69c2b068fc378daa952ba7f163c4a11628f55a4df523b3ef60405160405180910390a45050565b6008805490506009600083815260200190815260200160002081905550600881908060018154018082558091505090600182039060005260206000200160009091929091909150555050565b600080823b905060008111915050919050565b600073ffffffffffffffffffffffffffffffffffffffff166002600083815260200190815260200160002060009054906101000a900473ffffffffffffffffffffffffffffffffffffffff1673ffffffffffffffffffffffffffffffffffffffff161461366b5760006002600083815260200190815260200160002060006101000a81548173ffffffffffffffffffffffffffffffffffffffff021916908373ffffffffffffffffffffffffffffffffffffffff1602179055505b50565b613686600182600001546136a790919063ffffffff16565b816000018190555050565b6001816000016000828254019250508190555050565b60008282111561371f576040517f08c379a000000000000000000000000000000000000000000000000000000000815260040180806020018281038252601e8152602001807f536166654d6174683a207375627472616374696f6e206f766572666c6f77000081525060200191505060405180910390fd5b600082840390508091505092915050565b6040518060a001604052806000815260200160008152602001600073ffffffffffffffffffffffffffffffffffffffff168152602001600081526020016000151581525090565b828054600181600116156101000203166002900490600052602060002090601f016020900481019282601f106137b857805160ff19168380011785556137e6565b828001600101855582156137e6579182015b828111156137e55782518255916020019190600101906137ca565b5b5090506137f39190613823565b5090565b81548183558181111561381e5781836000526020600020918201910161381d9190613823565b5b505050565b61384591905b80821115613841576000816000905550600101613829565b5090565b9056fe455243373231456e756d657261626c653a206f776e657220696e646578206f7574206f6620626f756e64734552433732313a207472616e7366657220746f206e6f6e20455243373231526563656976657220696d706c656d656e746572546f6b656e206d757374206e6f7420616c7265616479206265206c69737465642e4552433732313a207472616e7366657220746f20746865207a65726f20616464726573734163636f756e74206d757374206e6f7420616c726561647920626520617574686f72697a65644552433732313a206f70657261746f7220717565727920666f72206e6f6e6578697374656e7420746f6b656e4552433732313a20617070726f76652063616c6c6572206973206e6f74206f776e6572206e6f7220617070726f76656420666f7220616c6c4552433732313a2062616c616e636520717565727920666f7220746865207a65726f20616464726573734552433732313a206f776e657220717565727920666f72206e6f6e6578697374656e7420746f6b656e4552433732313a20617070726f76656420717565727920666f72206e6f6e6578697374656e7420746f6b656e4552433732314d657461646174613a2055524920736574206f66206e6f6e6578697374656e7420746f6b656e4552433732313a207472616e73666572206f6620746f6b656e2074686174206973206e6f74206f776e4552433732314d657461646174613a2055524920717565727920666f72206e6f6e6578697374656e7420746f6b656e4552433732313a20617070726f76616c20746f2063757272656e74206f776e65724163636f756e74204572726f723a20417474656d7074656420746f20637265617465206c697374696e6720666f7220696e76616c6964206163636f756e744552433732313a207472616e736665722063616c6c6572206973206e6f74206f776e6572206e6f7220617070726f7665644f6e6c7920616e20617574686f72697a6564206163636f756e742063616e2063616c6c20746869732066756e6374696f6e455243373231456e756d657261626c653a20676c6f62616c20696e646578206f7574206f6620626f756e64734d757374206265206865616420617574686f7269747920746f2063616c6c20746869732066756e6374696f6ea265627a7a7231582081427934557ecc45a409d124b18b08476efc11e8d83cbba7ece3041e97d67cc964736f6c63430005100032",
  "source": "pragma solidity >=0.4.22 <0.7.0;\r\n\r\nimport \"./ERC721Full.sol\";\r\n\r\ncontract PlayerToken is ERC721Full {\r\n\r\n    struct Listing {\r\n        uint256 id;\r\n        uint price;\r\n        address payable lister;\r\n        uint256 tokenId;\r\n        //uint256 tokenIndex;\r\n        bool sold;\r\n    }\r\n\r\n    //head authority, only account that can add authorized accounts\r\n    address private authority;\r\n    //only authorized accounts can change token variables\r\n    mapping(address => bool) authorizedAccounts;\r\n\r\n    //tokenId => isListed\r\n    mapping(uint256 => bool) listedTokens;\r\n\r\n    //listingId => listing Struct\r\n    mapping(uint256 => Listing) listings;\r\n\r\n    //ListingId => isListed\r\n    mapping(uint256 => bool) currentListings;\r\n\r\n    //array of listing's ids. Has removed listing Ids too.\r\n    uint256[] private listingIds;\r\n\r\n    \r\n\r\n    uint256 private listingIdCounter;\r\n\r\n    constructor(address _authority) ERC721Full(\"PlayerToken\", \"PTOKEN\") public {\r\n        authority = _authority;\r\n        authorizedAccounts[_authority] = true;\r\n        listingIdCounter = 0;\r\n    }\r\n\r\n    //creates new listing and adds it to list. \r\n    function addListing(uint256 tokenId, uint amount) public {\r\n        require(msg.sender != address(0), \"Account Error: Attempted to create listing for invalid account\");\r\n        require(amount > 0, \"Amount must be greater than 0\");\r\n        require(ownerOf(tokenId) == msg.sender, \"Lister must own Token\");\r\n        require(!listedTokens[tokenId], \"Token must not already be listed.\");\r\n\r\n        listedTokens[tokenId] = true;\r\n\r\n        //Increment and set unique listing id (There is a better way to do this with enumerable interface I believe)\r\n        listingIdCounter = listingIdCounter + 1;\r\n        uint256 id = listingIdCounter;\r\n\r\n        Listing memory newListing = Listing(id, amount, msg.sender, tokenId, false);\r\n        listingIds.push(id);\r\n        currentListings[id] = true;\r\n\r\n        listings[id] = newListing;\r\n\r\n        //set contract to authorized account for given token\r\n        //This is so contract can authorize transfer of token.\r\n        setApprovalForAll(address(this), true);\r\n\r\n    }\r\n\r\n\r\n    //Returns given ListingId listing\r\n    //returns integer array of structure (listingId, tokenId, price, (stats))\r\n    //stats are in same order as with previous implementations\r\n    function getListingData(uint256 listingId) public view authorize returns (uint, uint, uint, bool, uint, uint, uint){\r\n        //require(currentListings[listingId], \"Listing is not currently active\");\r\n        Listing storage listing = listings[listingId];\r\n        //        uint[] memory returnList = new uint[](6);\r\n        //        returnList[0] = tempListing.id;\r\n        //        returnList[1] = tempListing.tokenId;\r\n        //        returnList[2] = tempListing.price;\r\n        uint8[] memory stats = _getStats(listing.tokenId);\r\n        //        returnList[3] = stats[0];\r\n        //        returnList[4] = stats[1];\r\n        //        returnList[5] = stats[2];\r\n\r\n        return (listing.id, listing.price, listing.tokenId, listing.sold, stats[0], stats[1], stats[2]);\r\n\r\n    }\r\n\r\n    // returns list of current Listing Ids\r\n    // This is inefficient. It returns the whole history of listings, both active and inactive. In the DApp, it\r\n    // relies on getListingData to throw and error when it detects the listing is not active.\r\n    function getCurrentListingIds() public view authorize returns (uint256[] memory){\r\n        return listingIds;\r\n    }\r\n\r\n    function purchaseToken(uint256 listingId) public payable {\r\n        require(currentListings[listingId], \"Listing must be currently listed\");\r\n\r\n        Listing storage listing = listings[listingId];\r\n        require(listing.price <= msg.value, \"Must pay the full listing amount\");\r\n        require(msg.sender != listing.lister, \"Lister cannot buy own listing\");\r\n        //require(getApproved(tempListing.tokenId)==address(this), \"Contract must  be approved account on Token for Transfer\");\r\n\r\n        //UNSAFE, Should have all transfer methods in separate contract, then call that from this contract\r\n        //Needed to change so that it does not check for msg.sender to be the token owner or approved because the buyer is not approved or owner. \r\n        transferFromNoRequirement(listing.lister, msg.sender, listing.tokenId);\r\n        listing.lister.transfer(listing.price);\r\n\r\n        //Remove listing from current listings\r\n        listedTokens[listing.tokenId] = false;\r\n        currentListings[listingId] = false;\r\n        listing.sold = true;\r\n        //listingIdCounter--;\r\n    }\r\n\r\n    modifier authorize{\r\n        require(\r\n            isAuthorized(msg.sender),\r\n            \"Only an authorized account can call this function\"\r\n        );\r\n        _;\r\n    }\r\n\r\n    //create new PlayerTokens\r\n    function mint(address _to, string memory _tokenURI, uint8[3] memory stats) public authorize returns (bool){\r\n        //id is the number of token (mint number)\r\n        uint256 _tokenId = totalSupply().add(1);\r\n\r\n        // new method to mint\r\n        _mint(_to, _tokenId);\r\n        changeStats(_tokenId, stats);\r\n\r\n        //call ERC721 mint function to mint a new token\r\n        //        _mintWithStats(_to, _tokenId, stats);\r\n\r\n        //set the newly minted token's URI to passed URI\r\n        _setTokenURI(_tokenId, _tokenURI);\r\n\r\n\r\n        return true;\r\n    }\r\n\r\n    //Change the stats of a given token, must be authorized account\r\n    function changeStats(uint256 tokenId, uint8[3] memory stats) public authorize {\r\n        //dont really need this unless we do something before calling this\r\n        _changeStats(tokenId, stats);\r\n    }\r\n\r\n    // Returns a list of tokenIDs owned by owner\r\n    function tokensOfOwner(address owner) public view authorize returns (uint256[] memory) {\r\n        return _tokensOfOwner(owner);\r\n    }\r\n\r\n    //checks if given account is authorized\r\n    function isAuthorized(address check) private view returns (bool){\r\n        return authorizedAccounts[check];\r\n    }\r\n\r\n    //add authorized accounts\r\n    function addAuthorizeAccount(address _account) public {\r\n        require(msg.sender == authority, \"Must be head authority to call this function\");\r\n        //require account is not already authorized\r\n        require(!authorizedAccounts[_account], \"Account must not already be authorized\");\r\n\r\n        //add account to authorizedAccounts\r\n        authorizedAccounts[_account] = true;\r\n\r\n    }\r\n\r\n}",
  "sourcePath": "C:/Users/meagherb/Documents/GitHub/cardchain/playerToken/contracts/PlayerToken.sol",
  "compiler": {
    "name": "solc",
    "version": "0.5.16+commit.9c3226ce.Emscripten.clang"
  },
  "schemaVersion": "3.2.3",
  "updatedAt": "2020-12-15T13:52:35.689Z",
  "networkType": "ethereum",
  "devdoc": {
    "methods": {
      "approve(address,uint256)": {
        "details": "Approves another address to transfer the given token ID The zero address indicates there is no approved address. There can only be one approved address per token at a given time. Can only be called by the token owner or an approved operator.",
        "params": {
          "to": "address to be approved for the given token ID",
          "tokenId": "uint256 ID of the token to be approved"
        }
      },
      "balanceOf(address)": {
        "details": "Gets the balance of the specified address.",
        "params": {
          "owner": "address to query the balance of"
        },
        "return": "uint256 representing the amount owned by the passed address"
      },
      "getApproved(uint256)": {
        "details": "Gets the approved address for a token ID, or zero if no address set Reverts if the token ID does not exist.",
        "params": {
          "tokenId": "uint256 ID of the token to query the approval of"
        },
        "return": "address currently approved for the given token ID"
      },
      "isApprovedForAll(address,address)": {
        "details": "Tells whether an operator is approved by a given owner.",
        "params": {
          "operator": "operator address which you want to query the approval of",
          "owner": "owner address which you want to query the approval of"
        },
        "return": "bool whether the given operator is approved by the given owner"
      },
      "name()": {
        "details": "Gets the token name.",
        "return": "string representing the token name"
      },
      "ownerOf(uint256)": {
        "details": "Gets the owner of the specified token ID.",
        "params": {
          "tokenId": "uint256 ID of the token to query the owner of"
        },
        "return": "address currently marked as the owner of the given token ID"
      },
      "safeTransferFrom(address,address,uint256)": {
        "details": "Safely transfers the ownership of a given token ID to another address If the target address is a contract, it must implement `onERC721Received`, which is called upon a safe transfer, and return the magic value `bytes4(keccak256(\"onERC721Received(address,address,uint256,bytes)\"))`; otherwise, the transfer is reverted. Requires the msg.sender to be the owner, approved, or operator",
        "params": {
          "from": "current owner of the token",
          "to": "address to receive the ownership of the given token ID",
          "tokenId": "uint256 ID of the token to be transferred"
        }
      },
      "safeTransferFrom(address,address,uint256,bytes)": {
        "details": "Safely transfers the ownership of a given token ID to another address If the target address is a contract, it must implement `onERC721Received`, which is called upon a safe transfer, and return the magic value `bytes4(keccak256(\"onERC721Received(address,address,uint256,bytes)\"))`; otherwise, the transfer is reverted. Requires the msg.sender to be the owner, approved, or operator",
        "params": {
          "_data": "bytes data to send along with a safe transfer check",
          "from": "current owner of the token",
          "to": "address to receive the ownership of the given token ID",
          "tokenId": "uint256 ID of the token to be transferred"
        }
      },
      "setApprovalForAll(address,bool)": {
        "details": "Sets or unsets the approval of a given operator An operator is allowed to transfer all tokens of the sender on their behalf.",
        "params": {
          "approved": "representing the status of the approval to be set",
          "to": "operator address to set the approval"
        }
      },
      "supportsInterface(bytes4)": {
        "details": "See `IERC165.supportsInterface`.      * Time complexity O(1), guaranteed to always use less than 30 000 gas."
      },
      "symbol()": {
        "details": "Gets the token symbol.",
        "return": "string representing the token symbol"
      },
      "tokenByIndex(uint256)": {
        "details": "Gets the token ID at a given index of all the tokens in this contract Reverts if the index is greater or equal to the total number of tokens.",
        "params": {
          "index": "uint256 representing the index to be accessed of the tokens list"
        },
        "return": "uint256 token ID at the given index of the tokens list"
      },
      "tokenOfOwnerByIndex(address,uint256)": {
        "details": "Gets the token ID at a given index of the tokens list of the requested owner.",
        "params": {
          "index": "uint256 representing the index to be accessed of the requested tokens list",
          "owner": "address owning the tokens list to be accessed"
        },
        "return": "uint256 token ID at the given index of the tokens list owned by the requested address"
      },
      "tokenURI(uint256)": {
        "details": "Returns an URI for a given token ID. Throws if the token ID does not exist. May return an empty string.",
        "params": {
          "tokenId": "uint256 ID of the token to query"
        }
      },
      "totalSupply()": {
        "details": "Gets the total amount of tokens stored by the contract.",
        "return": "uint256 representing the total amount of tokens"
      },
      "transferFrom(address,address,uint256)": {
        "details": "Transfers the ownership of a given token ID to another address. Usage of this method is discouraged, use `safeTransferFrom` whenever possible. Requires the msg.sender to be the owner, approved, or operator.",
        "params": {
          "from": "current owner of the token",
          "to": "address to receive the ownership of the given token ID",
          "tokenId": "uint256 ID of the token to be transferred"
        }
      }
    }
  },
  "userdoc": {
    "methods": {}
  }
}