{
  "contractName": "TokenGame",
  "abi": [
    {
      "inputs": [
        {
          "internalType": "address",
          "name": "_authority",
          "type": "address"
        },
        {
          "internalType": "address payable",
          "name": "_serviceFund",
          "type": "address"
        }
      ],
      "payable": false,
      "stateMutability": "nonpayable",
      "type": "constructor"
    },
    {
      "constant": true,
      "inputs": [],
      "name": "authority",
      "outputs": [
        {
          "internalType": "address",
          "name": "",
          "type": "address"
        }
      ],
      "payable": false,
      "stateMutability": "view",
      "type": "function"
    },
    {
      "constant": false,
      "inputs": [
        {
          "internalType": "uint256",
          "name": "playerId",
          "type": "uint256"
        }
      ],
      "name": "hostGame",
      "outputs": [],
      "payable": true,
      "stateMutability": "payable",
      "type": "function"
    },
    {
      "constant": false,
      "inputs": [
        {
          "internalType": "uint256",
          "name": "playerId",
          "type": "uint256"
        },
        {
          "internalType": "uint256",
          "name": "gameId",
          "type": "uint256"
        }
      ],
      "name": "joinGame",
      "outputs": [],
      "payable": true,
      "stateMutability": "payable",
      "type": "function"
    },
    {
      "constant": false,
      "inputs": [
        {
          "internalType": "uint256",
          "name": "winnerId",
          "type": "uint256"
        },
        {
          "internalType": "uint256",
          "name": "gameId",
          "type": "uint256"
        }
      ],
      "name": "endGame",
      "outputs": [],
      "payable": false,
      "stateMutability": "nonpayable",
      "type": "function"
    },
    {
      "constant": false,
      "inputs": [
        {
          "internalType": "address",
          "name": "_account",
          "type": "address"
        }
      ],
      "name": "addAuthorizeAccount",
      "outputs": [],
      "payable": false,
      "stateMutability": "nonpayable",
      "type": "function"
    }
  ],
  "bytecode": "0x6080604052601460025534801561001557600080fd5b50604051610fe8380380610fe88339818101604052604081101561003857600080fd5b810190808051906020019092919080519060200190929190505050816000806101000a81548173ffffffffffffffffffffffffffffffffffffffff021916908373ffffffffffffffffffffffffffffffffffffffff1602179055506001600360008060009054906101000a900473ffffffffffffffffffffffffffffffffffffffff1673ffffffffffffffffffffffffffffffffffffffff1673ffffffffffffffffffffffffffffffffffffffff16815260200190815260200160002060006101000a81548160ff02191690831515021790555080600160006101000a81548173ffffffffffffffffffffffffffffffffffffffff021916908373ffffffffffffffffffffffffffffffffffffffff1602179055505050610e8a8061015e6000396000f3fe60806040526004361061004a5760003560e01c80635e55e4281461004f5780639f98985d1461007d578063b60b9fcb146100c2578063bf7e214f146100fa578063e1b482ba14610151575b600080fd5b61007b6004803603602081101561006557600080fd5b81019080803590602001909291905050506101a2565b005b34801561008957600080fd5b506100c0600480360360408110156100a057600080fd5b8101908080359060200190929190803590602001909291905050506103b2565b005b6100f8600480360360408110156100d857600080fd5b81019080803590602001909291908035906020019092919050505061081c565b005b34801561010657600080fd5b5061010f610aca565b604051808273ffffffffffffffffffffffffffffffffffffffff1673ffffffffffffffffffffffffffffffffffffffff16815260200191505060405180910390f35b34801561015d57600080fd5b506101a06004803603602081101561017457600080fd5b81019080803573ffffffffffffffffffffffffffffffffffffffff169060200190929190505050610aef565b005b6006600082815260200190815260200160002060009054906101000a900460ff1615610219576040517f08c379a0000000000000000000000000000000000000000000000000000000008152600401808060200182810382526026815260200180610e046026913960400191505060405180910390fd5b600254341015610291576040517f08c379a00000000000000000000000000000000000000000000000000000000081526004018080602001828103825260118152602001807f427579496e206e6f7420656e6f7567682100000000000000000000000000000081525060200191505060405180910390fd5b60006004600081548092919060010191905055905060003490506102b3610ce8565b60405180604001604052808581526020013373ffffffffffffffffffffffffffffffffffffffff16815250905060016006600086815260200190815260200160002060006101000a81548160ff021916908315150217905550600060056000858152602001908152602001600020905081816000016000820151816000015560208201518160010160006101000a81548173ffffffffffffffffffffffffffffffffffffffff021916908373ffffffffffffffffffffffffffffffffffffffff16021790555090505082816004018190555060018160050160006101000a81548160ff021916908360038111156103a657fe5b02179055505050505050565b6103bb33610c92565b610410576040517f08c379a0000000000000000000000000000000000000000000000000000000008152600401808060200182810382526030815260200180610dae6030913960400191505060405180910390fd5b6002600381111561041d57fe5b6005600083815260200190815260200160002060050160009054906101000a900460ff16600381111561044c57fe5b146104bf576040517f08c379a000000000000000000000000000000000000000000000000000000000815260040180806020018281038252601d8152602001807f47616d65206d75737420626520696e20696e47616d652073746174652e00000081525060200191505060405180910390fd5b81600560008381526020019081526020016000206000016000015414806104fe5750816005600083815260200190815260200160002060020160000154145b610553576040517f08c379a0000000000000000000000000000000000000000000000000000000008152600401808060200182810382526026815260200180610d886026913960400191505060405180910390fd5b61055b610d18565b6005600083815260200190815260200160002060405180608001604052908160008201604051806040016040529081600082015481526020016001820160009054906101000a900473ffffffffffffffffffffffffffffffffffffffff1673ffffffffffffffffffffffffffffffffffffffff1673ffffffffffffffffffffffffffffffffffffffff1681525050815260200160028201604051806040016040529081600082015481526020016001820160009054906101000a900473ffffffffffffffffffffffffffffffffffffffff1673ffffffffffffffffffffffffffffffffffffffff1673ffffffffffffffffffffffffffffffffffffffff16815250508152602001600482015481526020016005820160009054906101000a900460ff16600381111561068957fe5b600381111561069457fe5b81525050905060008382600001516000015114156106bc5781600001516020015190506106c8565b81602001516020015190505b600060025460028460400151020390508173ffffffffffffffffffffffffffffffffffffffff166108fc829081150290604051600060405180830381858888f1935050505015801561071e573d6000803e3d6000fd5b50600160009054906101000a900473ffffffffffffffffffffffffffffffffffffffff1673ffffffffffffffffffffffffffffffffffffffff166108fc6002549081150290604051600060405180830381858888f19350505050158015610789573d6000803e3d6000fd5b5060038360600190600381111561079c57fe5b908160038111156107a957fe5b81525050600060066000856000015160000151815260200190815260200160002060006101000a81548160ff021916908315150217905550600060066000856020015160000151815260200190815260200160002060006101000a81548160ff0219169083151502179055505050505050565b6006600083815260200190815260200160002060009054906101000a900460ff1615610893576040517f08c379a0000000000000000000000000000000000000000000000000000000008152600401808060200182810382526026815260200180610e046026913960400191505060405180910390fd5b600160038111156108a057fe5b6005600083815260200190815260200160002060050160009054906101000a900460ff1660038111156108cf57fe5b14610942576040517f08c379a000000000000000000000000000000000000000000000000000000000815260040180806020018281038252601e8152602001807f47616d65206d75737420626520696e2077616974696e672073746174652e000081525060200191505060405180910390fd5b600560008281526020019081526020016000206004015434146109cd576040517f08c379a000000000000000000000000000000000000000000000000000000000815260040180806020018281038252601c8152602001807f416d6f756e74206d75737420626520627579496e20416d6f756e74210000000081525060200191505060405180910390fd5b6109d5610ce8565b60405180604001604052808481526020013373ffffffffffffffffffffffffffffffffffffffff16815250905060016006600085815260200190815260200160002060006101000a81548160ff021916908315150217905550600060056000848152602001908152602001600020905081816002016000820151816000015560208201518160010160006101000a81548173ffffffffffffffffffffffffffffffffffffffff021916908373ffffffffffffffffffffffffffffffffffffffff16021790555090505060028160050160006101000a81548160ff02191690836003811115610abf57fe5b021790555050505050565b6000809054906101000a900473ffffffffffffffffffffffffffffffffffffffff1681565b6000809054906101000a900473ffffffffffffffffffffffffffffffffffffffff1673ffffffffffffffffffffffffffffffffffffffff163373ffffffffffffffffffffffffffffffffffffffff1614610b94576040517f08c379a000000000000000000000000000000000000000000000000000000000815260040180806020018281038252602c815260200180610e2a602c913960400191505060405180910390fd5b600360008273ffffffffffffffffffffffffffffffffffffffff1673ffffffffffffffffffffffffffffffffffffffff16815260200190815260200160002060009054906101000a900460ff1615610c37576040517f08c379a0000000000000000000000000000000000000000000000000000000008152600401808060200182810382526026815260200180610dde6026913960400191505060405180910390fd5b6001600360008373ffffffffffffffffffffffffffffffffffffffff1673ffffffffffffffffffffffffffffffffffffffff16815260200190815260200160002060006101000a81548160ff02191690831515021790555050565b6000600360008373ffffffffffffffffffffffffffffffffffffffff1673ffffffffffffffffffffffffffffffffffffffff16815260200190815260200160002060009054906101000a900460ff169050919050565b604051806040016040528060008152602001600073ffffffffffffffffffffffffffffffffffffffff1681525090565b6040518060800160405280610d2b610d57565b8152602001610d38610d57565b81526020016000815260200160006003811115610d5157fe5b81525090565b604051806040016040528060008152602001600073ffffffffffffffffffffffffffffffffffffffff168152509056fe57696e6e65724964206d757374206265206120706c6179657220696e207468652067616d65214f6e6c79206120617574686f72697a6564206163636f756e742063616e2063616c6c20746869732066756e6374696f6e4163636f756e74206d757374206e6f7420616c726561647920626520617574686f72697a6564506c61796572206d757374206e6f7420616c726561647920626520696e2061206c6f6262792e4d757374206265206865616420617574686f7269747920746f2063616c6c20746869732066756e6374696f6ea265627a7a723158204183e9951c49c121084f7cfed0ce0ada051c5c8513e5c86549f79ec9d13cb5d864736f6c63430005100032",
  "source": "pragma solidity >=0.4.22 <0.7.0;\r\n/**\r\n*@author Ben Meagher\r\n*\r\n*\r\n */\r\ncontract TokenGame{\r\n    //default state is Create\r\n    enum gameState {Create, Waiting, inGame, Over}\r\n    \r\n    //PlayerStruct used for Game struct\r\n    struct Player{\r\n        uint256 Id;\r\n        //cash out addess\r\n        address payable wallet;\r\n    }\r\n    \r\n    \r\n    struct Game{\r\n        Player host;\r\n        Player guest;\r\n        uint buyIn;\r\n        gameState state;\r\n    }\r\n \r\n    //authority on the account\r\n    address public authority;\r\n    address payable serviceFund;\r\n    //flat fee charged off of every \r\n    uint private serviceFee = 20;\r\n    mapping(address=>bool) authorizedAccounts;\r\n    \r\n    \r\n    uint private numGames;\r\n    \r\n    \r\n    // gameId => Game Struct\r\n    mapping(uint256 => Game) lobbies;\r\n    \r\n    // list of current players\r\n    mapping(uint256=>bool) currentPlayers;\r\n    \r\n    modifier authorize{\r\n        require(\r\n            isAuthorized(msg.sender),\r\n            \"Only a authorized account can call this function\"\r\n            );\r\n            _;\r\n    }\r\n    \r\n    constructor(address _authority, address payable _serviceFund) public {\r\n        authority = _authority;\r\n        authorizedAccounts[authority] = true;\r\n        serviceFund = _serviceFund;\r\n    }\r\n    \r\n    \r\n    function hostGame(uint256 playerId) public payable{\r\n        //player can only be in one game at a time\r\n        require(!currentPlayers[playerId], \"Player must not already be in a lobby.\");\r\n        \r\n        //require that the buyIn is at least the serviceFee\r\n        require(msg.value >= serviceFee, \"BuyIn not enough!\");\r\n        \r\n        //after all requirements\r\n        uint gameId = numGames++;\r\n        uint playerContribution = msg.value;\r\n        \r\n        //create player\r\n        Player memory p1 = Player(playerId, msg.sender);\r\n        //add player id to current currentPlayers\r\n        currentPlayers[playerId] = true;\r\n        \r\n        //create game\r\n        Game storage g = lobbies[gameId];\r\n        g.host = p1;\r\n        g.buyIn = playerContribution;\r\n        g.state = gameState.Waiting;\r\n        \r\n    }\r\n    \r\n    function joinGame(uint256 playerId, uint256 gameId) public payable{\r\n        //player can only be in one game at a time\r\n        require(!currentPlayers[playerId], \"Player must not already be in a lobby.\");\r\n        //game must not already be over\r\n        require(lobbies[gameId].state == gameState.Waiting, \"Game must be in waiting state.\");\r\n        //amount must be buyIn\r\n        require(msg.value==lobbies[gameId].buyIn, \"Amount must be buyIn Amount!\");\r\n        \r\n        //create player\r\n        Player memory p1 = Player(playerId, msg.sender);\r\n        //add player id to current currentPlayers\r\n        currentPlayers[playerId] = true;\r\n        \r\n        \r\n        Game storage g = lobbies[gameId];\r\n        g.guest = p1;\r\n        g.state = gameState.inGame;\r\n    }\r\n    \r\n    //only authrorized accounts can call, ends game and pays out winner and serviceFee. Puts game in end state\r\n    function endGame(uint256 winnerId, uint256 gameId) public authorize {\r\n        require(lobbies[gameId].state == gameState.inGame, \"Game must be in inGame state.\");\r\n        //require winnerId is one of the games Players\r\n        require(lobbies[gameId].host.Id == winnerId || lobbies[gameId].guest.Id == winnerId, \"WinnerId must be a player in the game!\" );\r\n        Game memory g = lobbies[gameId];\r\n        address payable  winnerAddress;\r\n        \r\n        //winnerId find address\r\n        if(g.host.Id == winnerId){\r\n            winnerAddress = g.host.wallet;\r\n        }\r\n        else{\r\n            winnerAddress = g.guest.wallet;\r\n        }\r\n        //calculate the winner's earnings\r\n        uint winnerCut = (g.buyIn*2) - serviceFee;\r\n        winnerAddress.transfer(winnerCut);\r\n        serviceFund.transfer(serviceFee);\r\n        \r\n        //Set game to over, players to off currentPlayers\r\n        g.state = gameState.Over;\r\n        currentPlayers[g.host.Id] = false;\r\n        currentPlayers[g.guest.Id] = false;\r\n        \r\n    }\r\n    \r\n    //checks if given account is authorized\r\n    function isAuthorized(address check) private view returns(bool){\r\n        return authorizedAccounts[check];\r\n    }\r\n    \r\n    \r\n    \r\n    //authroity account can add authroirzed accounts to list\r\n    function addAuthorizeAccount(address _account) public  {\r\n        require(msg.sender == authority, \"Must be head authority to call this function\");\r\n        //require account is not already authroized\r\n        require(!authorizedAccounts[_account], \"Account must not already be authorized\");\r\n        \r\n        //add account to authorizedAccounts\r\n        authorizedAccounts[_account] = true;\r\n        \r\n    }\r\n \r\n \r\n    \r\n}",
  "sourcePath": "C:/Users/meagherb/Documents/GitHub/cardchain/playerToken/contracts/TokenGame.sol",
  "compiler": {
    "name": "solc",
    "version": "0.5.16+commit.9c3226ce.Emscripten.clang"
  },
  "schemaVersion": "3.2.3",
  "updatedAt": "2020-11-22T18:42:17.039Z",
  "networkType": "ethereum",
  "devdoc": {
    "methods": {}
  },
  "userdoc": {
    "methods": {},
    "notice": "author Ben Meagher  *"
  }
}